{
  "_format": "hh-sol-artifact-1",
  "contractName": "BuggyNFT",
  "sourceName": "contracts/BuggyNFT.sol",
  "abi": [
    {
      "inputs": [
        {
          "internalType": "string",
          "name": "name",
          "type": "string"
        },
        {
          "internalType": "string",
          "name": "symbol",
          "type": "string"
        }
      ],
      "stateMutability": "nonpayable",
      "type": "constructor"
    },
    {
      "anonymous": false,
      "inputs": [
        {
          "indexed": true,
          "internalType": "address",
          "name": "owner",
          "type": "address"
        },
        {
          "indexed": true,
          "internalType": "address",
          "name": "approved",
          "type": "address"
        },
        {
          "indexed": true,
          "internalType": "uint256",
          "name": "tokenId",
          "type": "uint256"
        }
      ],
      "name": "Approval",
      "type": "event"
    },
    {
      "anonymous": false,
      "inputs": [
        {
          "indexed": true,
          "internalType": "address",
          "name": "owner",
          "type": "address"
        },
        {
          "indexed": true,
          "internalType": "address",
          "name": "operator",
          "type": "address"
        },
        {
          "indexed": false,
          "internalType": "bool",
          "name": "approved",
          "type": "bool"
        }
      ],
      "name": "ApprovalForAll",
      "type": "event"
    },
    {
      "anonymous": false,
      "inputs": [
        {
          "indexed": true,
          "internalType": "address",
          "name": "previousOwner",
          "type": "address"
        },
        {
          "indexed": true,
          "internalType": "address",
          "name": "newOwner",
          "type": "address"
        }
      ],
      "name": "OwnershipTransferred",
      "type": "event"
    },
    {
      "anonymous": false,
      "inputs": [
        {
          "indexed": true,
          "internalType": "address",
          "name": "from",
          "type": "address"
        },
        {
          "indexed": true,
          "internalType": "address",
          "name": "to",
          "type": "address"
        },
        {
          "indexed": true,
          "internalType": "uint256",
          "name": "tokenId",
          "type": "uint256"
        }
      ],
      "name": "Transfer",
      "type": "event"
    },
    {
      "inputs": [
        {
          "internalType": "address",
          "name": "to",
          "type": "address"
        },
        {
          "internalType": "uint256",
          "name": "tokenId",
          "type": "uint256"
        }
      ],
      "name": "approve",
      "outputs": [],
      "stateMutability": "nonpayable",
      "type": "function"
    },
    {
      "inputs": [
        {
          "internalType": "address",
          "name": "owner",
          "type": "address"
        }
      ],
      "name": "balanceOf",
      "outputs": [
        {
          "internalType": "uint256",
          "name": "",
          "type": "uint256"
        }
      ],
      "stateMutability": "view",
      "type": "function"
    },
    {
      "inputs": [
        {
          "internalType": "uint256",
          "name": "tokenId",
          "type": "uint256"
        }
      ],
      "name": "getApproved",
      "outputs": [
        {
          "internalType": "address",
          "name": "",
          "type": "address"
        }
      ],
      "stateMutability": "view",
      "type": "function"
    },
    {
      "inputs": [
        {
          "internalType": "uint256",
          "name": "_id",
          "type": "uint256"
        }
      ],
      "name": "getImage",
      "outputs": [
        {
          "internalType": "string",
          "name": "",
          "type": "string"
        }
      ],
      "stateMutability": "view",
      "type": "function"
    },
    {
      "inputs": [
        {
          "internalType": "address",
          "name": "owner",
          "type": "address"
        },
        {
          "internalType": "address",
          "name": "operator",
          "type": "address"
        }
      ],
      "name": "isApprovedForAll",
      "outputs": [
        {
          "internalType": "bool",
          "name": "",
          "type": "bool"
        }
      ],
      "stateMutability": "view",
      "type": "function"
    },
    {
      "inputs": [
        {
          "internalType": "address",
          "name": "sponsor",
          "type": "address"
        },
        {
          "internalType": "string",
          "name": "signature",
          "type": "string"
        }
      ],
      "name": "mintToken",
      "outputs": [],
      "stateMutability": "nonpayable",
      "type": "function"
    },
    {
      "inputs": [],
      "name": "minter",
      "outputs": [
        {
          "internalType": "address",
          "name": "",
          "type": "address"
        }
      ],
      "stateMutability": "view",
      "type": "function"
    },
    {
      "inputs": [],
      "name": "name",
      "outputs": [
        {
          "internalType": "string",
          "name": "",
          "type": "string"
        }
      ],
      "stateMutability": "view",
      "type": "function"
    },
    {
      "inputs": [],
      "name": "owner",
      "outputs": [
        {
          "internalType": "address",
          "name": "",
          "type": "address"
        }
      ],
      "stateMutability": "view",
      "type": "function"
    },
    {
      "inputs": [
        {
          "internalType": "uint256",
          "name": "tokenId",
          "type": "uint256"
        }
      ],
      "name": "ownerOf",
      "outputs": [
        {
          "internalType": "address",
          "name": "",
          "type": "address"
        }
      ],
      "stateMutability": "view",
      "type": "function"
    },
    {
      "inputs": [
        {
          "internalType": "uint256",
          "name": "",
          "type": "uint256"
        }
      ],
      "name": "ownershipRecord",
      "outputs": [
        {
          "internalType": "string",
          "name": "",
          "type": "string"
        }
      ],
      "stateMutability": "view",
      "type": "function"
    },
    {
      "inputs": [],
      "name": "renounceOwnership",
      "outputs": [],
      "stateMutability": "nonpayable",
      "type": "function"
    },
    {
      "inputs": [
        {
          "internalType": "address",
          "name": "from",
          "type": "address"
        },
        {
          "internalType": "address",
          "name": "to",
          "type": "address"
        },
        {
          "internalType": "uint256",
          "name": "tokenId",
          "type": "uint256"
        }
      ],
      "name": "safeTransferFrom",
      "outputs": [],
      "stateMutability": "nonpayable",
      "type": "function"
    },
    {
      "inputs": [
        {
          "internalType": "address",
          "name": "from",
          "type": "address"
        },
        {
          "internalType": "address",
          "name": "to",
          "type": "address"
        },
        {
          "internalType": "uint256",
          "name": "tokenId",
          "type": "uint256"
        },
        {
          "internalType": "bytes",
          "name": "data",
          "type": "bytes"
        }
      ],
      "name": "safeTransferFrom",
      "outputs": [],
      "stateMutability": "nonpayable",
      "type": "function"
    },
    {
      "inputs": [
        {
          "internalType": "address",
          "name": "operator",
          "type": "address"
        },
        {
          "internalType": "bool",
          "name": "approved",
          "type": "bool"
        }
      ],
      "name": "setApprovalForAll",
      "outputs": [],
      "stateMutability": "nonpayable",
      "type": "function"
    },
    {
      "inputs": [
        {
          "internalType": "uint256",
          "name": "_id",
          "type": "uint256"
        },
        {
          "internalType": "string",
          "name": "_nftURI",
          "type": "string"
        }
      ],
      "name": "setImage",
      "outputs": [],
      "stateMutability": "nonpayable",
      "type": "function"
    },
    {
      "inputs": [
        {
          "internalType": "address",
          "name": "_minter",
          "type": "address"
        }
      ],
      "name": "setMinter",
      "outputs": [],
      "stateMutability": "nonpayable",
      "type": "function"
    },
    {
      "inputs": [
        {
          "internalType": "bytes4",
          "name": "interfaceId",
          "type": "bytes4"
        }
      ],
      "name": "supportsInterface",
      "outputs": [
        {
          "internalType": "bool",
          "name": "",
          "type": "bool"
        }
      ],
      "stateMutability": "view",
      "type": "function"
    },
    {
      "inputs": [],
      "name": "symbol",
      "outputs": [
        {
          "internalType": "string",
          "name": "",
          "type": "string"
        }
      ],
      "stateMutability": "view",
      "type": "function"
    },
    {
      "inputs": [],
      "name": "tokenId",
      "outputs": [
        {
          "internalType": "uint256",
          "name": "",
          "type": "uint256"
        }
      ],
      "stateMutability": "view",
      "type": "function"
    },
    {
      "inputs": [
        {
          "internalType": "uint256",
          "name": "tokenId",
          "type": "uint256"
        }
      ],
      "name": "tokenURI",
      "outputs": [
        {
          "internalType": "string",
          "name": "",
          "type": "string"
        }
      ],
      "stateMutability": "view",
      "type": "function"
    },
    {
      "inputs": [
        {
          "internalType": "address",
          "name": "from",
          "type": "address"
        },
        {
          "internalType": "address",
          "name": "to",
          "type": "address"
        },
        {
          "internalType": "uint256",
          "name": "tokenId",
          "type": "uint256"
        }
      ],
      "name": "transferFrom",
      "outputs": [],
      "stateMutability": "nonpayable",
      "type": "function"
    },
    {
      "inputs": [
        {
          "internalType": "address",
          "name": "newOwner",
          "type": "address"
        }
      ],
      "name": "transferOwnership",
      "outputs": [],
      "stateMutability": "nonpayable",
      "type": "function"
    }
  ],
  "bytecode": "0x60806040523480156200001157600080fd5b5060405162001c9038038062001c9083398101604081905262000034916200023a565b8181620000413362000077565b815162000056906001906020850190620000c7565b5080516200006c906002906020840190620000c7565b5050505050620002e1565b600080546001600160a01b038381166001600160a01b0319831681178455604051919092169283917f8be0079c531659141344cd1fd0a4f28419497f9722a3daafe3b4186f6b6457e09190a35050565b828054620000d590620002a4565b90600052602060002090601f016020900481019282620000f9576000855562000144565b82601f106200011457805160ff191683800117855562000144565b8280016001018555821562000144579182015b828111156200014457825182559160200191906001019062000127565b506200015292915062000156565b5090565b5b8082111562000152576000815560010162000157565b634e487b7160e01b600052604160045260246000fd5b600082601f8301126200019557600080fd5b81516001600160401b0380821115620001b257620001b26200016d565b604051601f8301601f19908116603f01168101908282118183101715620001dd57620001dd6200016d565b81604052838152602092508683858801011115620001fa57600080fd5b600091505b838210156200021e5785820183015181830184015290820190620001ff565b83821115620002305760008385830101525b9695505050505050565b600080604083850312156200024e57600080fd5b82516001600160401b03808211156200026657600080fd5b620002748683870162000183565b935060208501519150808211156200028b57600080fd5b506200029a8582860162000183565b9150509250929050565b600181811c90821680620002b957607f821691505b60208210811415620002db57634e487b7160e01b600052602260045260246000fd5b50919050565b61199f80620002f16000396000f3fe608060405234801561001057600080fd5b506004361061014d5760003560e01c80636352211e116100c3578063b88d4fde1161007c578063b88d4fde146102b2578063c87b56dd146102c5578063c980c626146102d8578063e985e9c5146102eb578063f2fde38b14610327578063fca3b5aa1461033a57600080fd5b80636352211e1461025857806370a082311461026b578063715018a61461027e5780638da5cb5b1461028657806395d89b4114610297578063a22cb4651461029f57600080fd5b806317d70f7c1161011557806317d70f7c146101e257806323b872dd146101f95780632607aafa1461020c5780633d02d0c91461021f57806342842e0e146102325780635c6caf761461024557600080fd5b806301ffc9a71461015257806306fdde031461017a578063075461721461018f578063081812fc146101ba578063095ea7b3146101cd575b600080fd5b6101656101603660046113fd565b61034d565b60405190151581526020015b60405180910390f35b61018261039f565b6040516101719190611472565b6008546101a2906001600160a01b031681565b6040516001600160a01b039091168152602001610171565b6101a26101c8366004611485565b610431565b6101e06101db3660046114ba565b610458565b005b6101eb60095481565b604051908152602001610171565b6101e06102073660046114e4565b610573565b61018261021a366004611485565b6105a4565b6101e061022d3660046115cc565b6105af565b6101e06102403660046114e4565b61064c565b610182610253366004611485565b610667565b6101a2610266366004611485565b610701565b6101eb61027936600461161a565b610761565b6101e06107e7565b6000546001600160a01b03166101a2565b6101826107fb565b6101e06102ad366004611635565b61080a565b6101e06102c0366004611671565b610815565b6101826102d3366004611485565b61084d565b6101e06102e63660046116ed565b61095e565b6101656102f936600461171e565b6001600160a01b03918216600090815260066020908152604080832093909416825291909152205460ff1690565b6101e061033536600461161a565b610970565b6101e061034836600461161a565b6109e9565b60006001600160e01b031982166380ac58cd60e01b148061037e57506001600160e01b03198216635b5e139f60e01b145b8061039957506301ffc9a760e01b6001600160e01b03198316145b92915050565b6060600180546103ae90611751565b80601f01602080910402602001604051908101604052809291908181526020018280546103da90611751565b80156104275780601f106103fc57610100808354040283529160200191610427565b820191906000526020600020905b81548152906001019060200180831161040a57829003601f168201915b5050505050905090565b600061043c82610a13565b506000908152600560205260409020546001600160a01b031690565b600061046382610701565b9050806001600160a01b0316836001600160a01b031614156104d65760405162461bcd60e51b815260206004820152602160248201527f4552433732313a20617070726f76616c20746f2063757272656e74206f776e656044820152603960f91b60648201526084015b60405180910390fd5b336001600160a01b03821614806104f257506104f281336102f9565b6105645760405162461bcd60e51b815260206004820152603e60248201527f4552433732313a20617070726f76652063616c6c6572206973206e6f7420746f60448201527f6b656e206f776e6572206e6f7220617070726f76656420666f7220616c6c000060648201526084016104cd565b61056e8383610a72565b505050565b61057d3382610ae0565b6105995760405162461bcd60e51b81526004016104cd9061178c565b61056e838383610b5e565b60606103998261084d565b6008546001600160a01b031633146106095760405162461bcd60e51b815260206004820152601860248201527f4f6e6c79206d696e7465722063616e206d696e74204e4654000000000000000060448201526064016104cd565b6009546106179060016117f0565b60098190556000908152600a60209081526040909120825161063b9284019061134e565b5061064882600954610cfa565b5050565b61056e83838360405180602001604052806000815250610815565b600a602052600090815260409020805461068090611751565b80601f01602080910402602001604051908101604052809291908181526020018280546106ac90611751565b80156106f95780601f106106ce576101008083540402835291602001916106f9565b820191906000526020600020905b8154815290600101906020018083116106dc57829003601f168201915b505050505081565b6000818152600360205260408120546001600160a01b0316806103995760405162461bcd60e51b8152602060048201526018602482015277115490cdcc8c4e881a5b9d985b1a59081d1bdad95b88125160421b60448201526064016104cd565b60006001600160a01b0382166107cb5760405162461bcd60e51b815260206004820152602960248201527f4552433732313a2061646472657373207a65726f206973206e6f7420612076616044820152683634b21037bbb732b960b91b60648201526084016104cd565b506001600160a01b031660009081526004602052604090205490565b6107ef610d14565b6107f96000610d6e565b565b6060600280546103ae90611751565b610648338383610dbe565b61081f3383610ae0565b61083b5760405162461bcd60e51b81526004016104cd9061178c565b61084784848484610e8d565b50505050565b606061085882610a13565b6000828152600760205260408120805461087190611751565b80601f016020809104026020016040519081016040528092919081815260200182805461089d90611751565b80156108ea5780601f106108bf576101008083540402835291602001916108ea565b820191906000526020600020905b8154815290600101906020018083116108cd57829003601f168201915b50505050509050600061090860408051602081019091526000815290565b905080516000141561091b575092915050565b81511561094d578082604051602001610935929190611808565b60405160208183030381529060405292505050919050565b61095684610ec0565b949350505050565b610966610d14565b6106488282610f34565b610978610d14565b6001600160a01b0381166109dd5760405162461bcd60e51b815260206004820152602660248201527f4f776e61626c653a206e6577206f776e657220697320746865207a65726f206160448201526564647265737360d01b60648201526084016104cd565b6109e681610d6e565b50565b6109f1610d14565b600880546001600160a01b0319166001600160a01b0392909216919091179055565b6000818152600360205260409020546001600160a01b03166109e65760405162461bcd60e51b8152602060048201526018602482015277115490cdcc8c4e881a5b9d985b1a59081d1bdad95b88125160421b60448201526064016104cd565b600081815260056020526040902080546001600160a01b0319166001600160a01b0384169081179091558190610aa782610701565b6001600160a01b03167f8c5be1e5ebec7d5bd14f71427d1e84f3dd0314c0f7b2291e5b200ac8c7c3b92560405160405180910390a45050565b600080610aec83610701565b9050806001600160a01b0316846001600160a01b03161480610b3357506001600160a01b0380821660009081526006602090815260408083209388168352929052205460ff165b806109565750836001600160a01b0316610b4c84610431565b6001600160a01b031614949350505050565b826001600160a01b0316610b7182610701565b6001600160a01b031614610bd55760405162461bcd60e51b815260206004820152602560248201527f4552433732313a207472616e736665722066726f6d20696e636f72726563742060448201526437bbb732b960d91b60648201526084016104cd565b6001600160a01b038216610c375760405162461bcd60e51b8152602060048201526024808201527f4552433732313a207472616e7366657220746f20746865207a65726f206164646044820152637265737360e01b60648201526084016104cd565b610c42600082610a72565b6001600160a01b0383166000908152600460205260408120805460019290610c6b908490611837565b90915550506001600160a01b0382166000908152600460205260408120805460019290610c999084906117f0565b909155505060008181526003602052604080822080546001600160a01b0319166001600160a01b0386811691821790925591518493918716917fddf252ad1be2c89b69c2b068fc378daa952ba7f163c4a11628f55a4df523b3ef91a4505050565b610648828260405180602001604052806000815250610fce565b6000546001600160a01b031633146107f95760405162461bcd60e51b815260206004820181905260248201527f4f776e61626c653a2063616c6c6572206973206e6f7420746865206f776e657260448201526064016104cd565b600080546001600160a01b038381166001600160a01b0319831681178455604051919092169283917f8be0079c531659141344cd1fd0a4f28419497f9722a3daafe3b4186f6b6457e09190a35050565b816001600160a01b0316836001600160a01b03161415610e205760405162461bcd60e51b815260206004820152601960248201527f4552433732313a20617070726f766520746f2063616c6c65720000000000000060448201526064016104cd565b6001600160a01b03838116600081815260066020908152604080832094871680845294825291829020805460ff191686151590811790915591519182527f17307eab39ab6107e8899845ad3d59bd9653f200f220920489ca2b5937696c31910160405180910390a3505050565b610e98848484610b5e565b610ea484848484611001565b6108475760405162461bcd60e51b81526004016104cd9061184e565b6060610ecb82610a13565b6000610ee260408051602081019091526000815290565b90506000815111610f025760405180602001604052806000815250610f2d565b80610f0c8461110e565b604051602001610f1d929190611808565b6040516020818303038152906040525b9392505050565b6000828152600360205260409020546001600160a01b0316610faf5760405162461bcd60e51b815260206004820152602e60248201527f45524337323155524953746f726167653a2055524920736574206f66206e6f6e60448201526d32bc34b9ba32b73a103a37b5b2b760911b60648201526084016104cd565b6000828152600760209081526040909120825161056e9284019061134e565b610fd8838361120c565b610fe56000848484611001565b61056e5760405162461bcd60e51b81526004016104cd9061184e565b60006001600160a01b0384163b1561110357604051630a85bd0160e11b81526001600160a01b0385169063150b7a02906110459033908990889088906004016118a0565b602060405180830381600087803b15801561105f57600080fd5b505af192505050801561108f575060408051601f3d908101601f1916820190925261108c918101906118dd565b60015b6110e9573d8080156110bd576040519150601f19603f3d011682016040523d82523d6000602084013e6110c2565b606091505b5080516110e15760405162461bcd60e51b81526004016104cd9061184e565b805181602001fd5b6001600160e01b031916630a85bd0160e11b149050610956565b506001949350505050565b6060816111325750506040805180820190915260018152600360fc1b602082015290565b8160005b811561115c5780611146816118fa565b91506111559050600a8361192b565b9150611136565b60008167ffffffffffffffff81111561117757611177611520565b6040519080825280601f01601f1916602001820160405280156111a1576020820181803683370190505b5090505b8415610956576111b6600183611837565b91506111c3600a8661193f565b6111ce9060306117f0565b60f81b8183815181106111e3576111e3611953565b60200101906001600160f81b031916908160001a905350611205600a8661192b565b94506111a5565b6001600160a01b0382166112625760405162461bcd60e51b815260206004820181905260248201527f4552433732313a206d696e7420746f20746865207a65726f206164647265737360448201526064016104cd565b6000818152600360205260409020546001600160a01b0316156112c75760405162461bcd60e51b815260206004820152601c60248201527f4552433732313a20746f6b656e20616c7265616479206d696e7465640000000060448201526064016104cd565b6001600160a01b03821660009081526004602052604081208054600192906112f09084906117f0565b909155505060008181526003602052604080822080546001600160a01b0319166001600160a01b03861690811790915590518392907fddf252ad1be2c89b69c2b068fc378daa952ba7f163c4a11628f55a4df523b3ef908290a45050565b82805461135a90611751565b90600052602060002090601f01602090048101928261137c57600085556113c2565b82601f1061139557805160ff19168380011785556113c2565b828001600101855582156113c2579182015b828111156113c25782518255916020019190600101906113a7565b506113ce9291506113d2565b5090565b5b808211156113ce57600081556001016113d3565b6001600160e01b0319811681146109e657600080fd5b60006020828403121561140f57600080fd5b8135610f2d816113e7565b60005b8381101561143557818101518382015260200161141d565b838111156108475750506000910152565b6000815180845261145e81602086016020860161141a565b601f01601f19169290920160200192915050565b602081526000610f2d6020830184611446565b60006020828403121561149757600080fd5b5035919050565b80356001600160a01b03811681146114b557600080fd5b919050565b600080604083850312156114cd57600080fd5b6114d68361149e565b946020939093013593505050565b6000806000606084860312156114f957600080fd5b6115028461149e565b92506115106020850161149e565b9150604084013590509250925092565b634e487b7160e01b600052604160045260246000fd5b600067ffffffffffffffff8084111561155157611551611520565b604051601f8501601f19908116603f0116810190828211818310171561157957611579611520565b8160405280935085815286868601111561159257600080fd5b858560208301376000602087830101525050509392505050565b600082601f8301126115bd57600080fd5b610f2d83833560208501611536565b600080604083850312156115df57600080fd5b6115e88361149e565b9150602083013567ffffffffffffffff81111561160457600080fd5b611610858286016115ac565b9150509250929050565b60006020828403121561162c57600080fd5b610f2d8261149e565b6000806040838503121561164857600080fd5b6116518361149e565b91506020830135801515811461166657600080fd5b809150509250929050565b6000806000806080858703121561168757600080fd5b6116908561149e565b935061169e6020860161149e565b925060408501359150606085013567ffffffffffffffff8111156116c157600080fd5b8501601f810187136116d257600080fd5b6116e187823560208401611536565b91505092959194509250565b6000806040838503121561170057600080fd5b82359150602083013567ffffffffffffffff81111561160457600080fd5b6000806040838503121561173157600080fd5b61173a8361149e565b91506117486020840161149e565b90509250929050565b600181811c9082168061176557607f821691505b6020821081141561178657634e487b7160e01b600052602260045260246000fd5b50919050565b6020808252602e908201527f4552433732313a2063616c6c6572206973206e6f7420746f6b656e206f776e6560408201526d1c881b9bdc88185c1c1c9bdd995960921b606082015260800190565b634e487b7160e01b600052601160045260246000fd5b60008219821115611803576118036117da565b500190565b6000835161181a81846020880161141a565b83519083019061182e81836020880161141a565b01949350505050565b600082821015611849576118496117da565b500390565b60208082526032908201527f4552433732313a207472616e7366657220746f206e6f6e20455243373231526560408201527131b2b4bb32b91034b6b83632b6b2b73a32b960711b606082015260800190565b6001600160a01b03858116825284166020820152604081018390526080606082018190526000906118d390830184611446565b9695505050505050565b6000602082840312156118ef57600080fd5b8151610f2d816113e7565b600060001982141561190e5761190e6117da565b5060010190565b634e487b7160e01b600052601260045260246000fd5b60008261193a5761193a611915565b500490565b60008261194e5761194e611915565b500690565b634e487b7160e01b600052603260045260246000fdfea2646970667358221220dd2b1c691fea4ea4337bd9a0adfdbeee2551f6cf1b7f3d038d880fc5d55401c564736f6c63430008090033",
  "linkReferences": {},
  "deployedLinkReferences": {}
}