{
  "_format": "hh-sol-artifact-1",
  "contractName": "CryptoBuggy",
  "sourceName": "contracts/CryptoBuggy.sol",
  "abi": [
    {
      "inputs": [
        {
          "internalType": "uint256",
          "name": "_price",
          "type": "uint256"
        },
        {
          "internalType": "address",
          "name": "_nft",
          "type": "address"
        },
        {
          "internalType": "address",
          "name": "_buggyToken",
          "type": "address"
        }
      ],
      "stateMutability": "nonpayable",
      "type": "constructor"
    },
    {
      "anonymous": false,
      "inputs": [
        {
          "indexed": true,
          "internalType": "address",
          "name": "previousOwner",
          "type": "address"
        },
        {
          "indexed": true,
          "internalType": "address",
          "name": "newOwner",
          "type": "address"
        }
      ],
      "name": "OwnershipTransferred",
      "type": "event"
    },
    {
      "inputs": [
        {
          "internalType": "string",
          "name": "_signature",
          "type": "string"
        },
        {
          "internalType": "uint256",
          "name": "count",
          "type": "uint256"
        }
      ],
      "name": "addFund",
      "outputs": [],
      "stateMutability": "payable",
      "type": "function"
    },
    {
      "inputs": [],
      "name": "buggyNFT",
      "outputs": [
        {
          "internalType": "contract BuggyNFT",
          "name": "",
          "type": "address"
        }
      ],
      "stateMutability": "view",
      "type": "function"
    },
    {
      "inputs": [],
      "name": "buggyToken",
      "outputs": [
        {
          "internalType": "contract BuggyToken",
          "name": "",
          "type": "address"
        }
      ],
      "stateMutability": "view",
      "type": "function"
    },
    {
      "inputs": [],
      "name": "owner",
      "outputs": [
        {
          "internalType": "address",
          "name": "",
          "type": "address"
        }
      ],
      "stateMutability": "view",
      "type": "function"
    },
    {
      "inputs": [],
      "name": "price",
      "outputs": [
        {
          "internalType": "uint256",
          "name": "",
          "type": "uint256"
        }
      ],
      "stateMutability": "view",
      "type": "function"
    },
    {
      "inputs": [],
      "name": "renounceOwnership",
      "outputs": [],
      "stateMutability": "nonpayable",
      "type": "function"
    },
    {
      "inputs": [
        {
          "internalType": "address",
          "name": "newOwner",
          "type": "address"
        }
      ],
      "name": "transferOwnership",
      "outputs": [],
      "stateMutability": "nonpayable",
      "type": "function"
    },
    {
      "inputs": [
        {
          "internalType": "address",
          "name": "_beneficiary",
          "type": "address"
        }
      ],
      "name": "withdraw",
      "outputs": [],
      "stateMutability": "nonpayable",
      "type": "function"
    }
  ],
  "bytecode": "0x608060405234801561001057600080fd5b506040516107dd3803806107dd83398101604081905261002f916100db565b6100383361006f565b600192909255600280546001600160a01b039283166001600160a01b03199182161790915560038054929093169116179055610117565b600080546001600160a01b038381166001600160a01b0319831681178455604051919092169283917f8be0079c531659141344cd1fd0a4f28419497f9722a3daafe3b4186f6b6457e09190a35050565b80516001600160a01b03811681146100d657600080fd5b919050565b6000806000606084860312156100f057600080fd5b83519250610100602085016100bf565b915061010e604085016100bf565b90509250925092565b6106b7806101266000396000f3fe60806040526004361061007b5760003560e01c80638da5cb5b1161004e5780638da5cb5b14610114578063925b7cb614610132578063a035b1fe14610145578063f2fde38b1461016957600080fd5b806305a9aeca1461008057806344761aa9146100bd57806351cff8d9146100dd578063715018a6146100ff575b600080fd5b34801561008c57600080fd5b506002546100a0906001600160a01b031681565b6040516001600160a01b0390911681526020015b60405180910390f35b3480156100c957600080fd5b506003546100a0906001600160a01b031681565b3480156100e957600080fd5b506100fd6100f83660046104d1565b610189565b005b34801561010b57600080fd5b506100fd6101ca565b34801561012057600080fd5b506000546001600160a01b03166100a0565b6100fd610140366004610517565b6101de565b34801561015157600080fd5b5061015b60015481565b6040519081526020016100b4565b34801561017557600080fd5b506100fd6101843660046104d1565b6103ae565b610191610427565b6040516001600160a01b038216904780156108fc02916000818181858888f193505050501580156101c6573d6000803e3d6000fd5b5050565b6101d2610427565b6101dc6000610481565b565b6000816001546101ee91906105e2565b905080341461024f5760405162461bcd60e51b815260206004820152602260248201527f4e6f7420656e6f7567682066756e647320746f2063726561746520746865204e604482015261119560f21b60648201526084015b60405180910390fd5b81600114156102c157600254604051633d02d0c960e01b81526001600160a01b0390911690633d02d0c99061028a9033908790600401610601565b600060405180830381600087803b1580156102a457600080fd5b505af11580156102b8573d6000803e3d6000fd5b50505050610345565b60005b8281101561034357600254604051633d02d0c960e01b81526001600160a01b0390911690633d02d0c9906102fe9033908890600401610601565b600060405180830381600087803b15801561031857600080fd5b505af115801561032c573d6000803e3d6000fd5b50505050808061033b90610666565b9150506102c4565b505b600354604051630f38ca0d60e31b8152336004820152602481018390526001600160a01b03909116906379c6506890604401600060405180830381600087803b15801561039157600080fd5b505af11580156103a5573d6000803e3d6000fd5b50505050505050565b6103b6610427565b6001600160a01b03811661041b5760405162461bcd60e51b815260206004820152602660248201527f4f776e61626c653a206e6577206f776e657220697320746865207a65726f206160448201526564647265737360d01b6064820152608401610246565b61042481610481565b50565b6000546001600160a01b031633146101dc5760405162461bcd60e51b815260206004820181905260248201527f4f776e61626c653a2063616c6c6572206973206e6f7420746865206f776e65726044820152606401610246565b600080546001600160a01b038381166001600160a01b0319831681178455604051919092169283917f8be0079c531659141344cd1fd0a4f28419497f9722a3daafe3b4186f6b6457e09190a35050565b6000602082840312156104e357600080fd5b81356001600160a01b03811681146104fa57600080fd5b9392505050565b634e487b7160e01b600052604160045260246000fd5b6000806040838503121561052a57600080fd5b823567ffffffffffffffff8082111561054257600080fd5b818501915085601f83011261055657600080fd5b81358181111561056857610568610501565b604051601f8201601f19908116603f0116810190838211818310171561059057610590610501565b816040528281528860208487010111156105a957600080fd5b826020860160208301376000602093820184015298969091013596505050505050565b634e487b7160e01b600052601160045260246000fd5b60008160001904831182151516156105fc576105fc6105cc565b500290565b60018060a01b038316815260006020604081840152835180604085015260005b8181101561063d57858101830151858201606001528201610621565b8181111561064f576000606083870101525b50601f01601f191692909201606001949350505050565b600060001982141561067a5761067a6105cc565b506001019056fea2646970667358221220fcc092b74a177bd7bcd4a40e1814f9630993796efc66b07857dce598b290822864736f6c63430008090033",
  "linkReferences": {},
  "deployedLinkReferences": {}
}